{
  "contractName": "EtherlessSmart",
  "abi": [
    {
      "inputs": [],
      "payable": false,
      "stateMutability": "nonpayable",
      "type": "constructor"
    },
    {
      "anonymous": false,
      "inputs": [
        {
          "indexed": false,
          "internalType": "string",
          "name": "_name",
          "type": "string"
        },
        {
          "indexed": false,
          "internalType": "string",
          "name": "_parameters",
          "type": "string"
        },
        {
          "indexed": false,
          "internalType": "string",
          "name": "_identifier",
          "type": "string"
        }
      ],
      "name": "RemoteExec",
      "type": "event"
    },
    {
      "anonymous": false,
      "inputs": [
        {
          "indexed": false,
          "internalType": "string",
          "name": "_response",
          "type": "string"
        },
        {
          "indexed": false,
          "internalType": "string",
          "name": "_identifier",
          "type": "string"
        }
      ],
      "name": "RemoteResponse",
      "type": "event"
    },
    {
      "constant": true,
      "inputs": [
        {
          "internalType": "uint256",
          "name": "",
          "type": "uint256"
        }
      ],
      "name": "availableFunctionNames",
      "outputs": [
        {
          "internalType": "string",
          "name": "",
          "type": "string"
        }
      ],
      "payable": false,
      "stateMutability": "view",
      "type": "function"
    },
    {
      "constant": false,
      "inputs": [
        {
          "internalType": "string",
          "name": "fnName",
          "type": "string"
        },
        {
          "internalType": "string",
          "name": "paramers",
          "type": "string"
        },
        {
          "internalType": "string",
          "name": "identifier",
          "type": "string"
        }
      ],
      "name": "execFunctionRequest",
      "outputs": [],
      "payable": true,
      "stateMutability": "payable",
      "type": "function"
    },
    {
      "constant": true,
      "inputs": [],
      "name": "listFunctions",
      "outputs": [
        {
          "internalType": "string[]",
          "name": "functionNames",
          "type": "string[]"
        }
      ],
      "payable": false,
      "stateMutability": "view",
      "type": "function"
    },
    {
      "constant": false,
      "inputs": [
        {
          "internalType": "string",
          "name": "fnName",
          "type": "string"
        },
        {
          "internalType": "string",
          "name": "description",
          "type": "string"
        },
        {
          "internalType": "string",
          "name": "prototype",
          "type": "string"
        },
        {
          "internalType": "string",
          "name": "remoteResource",
          "type": "string"
        },
        {
          "internalType": "uint256",
          "name": "cost",
          "type": "uint256"
        }
      ],
      "name": "createFunction",
      "outputs": [],
      "payable": false,
      "stateMutability": "nonpayable",
      "type": "function"
    },
    {
      "constant": false,
      "inputs": [
        {
          "internalType": "string",
          "name": "result",
          "type": "string"
        },
        {
          "internalType": "string",
          "name": "identifier",
          "type": "string"
        }
      ],
      "name": "execRemoteResponse",
      "outputs": [],
      "payable": false,
      "stateMutability": "nonpayable",
      "type": "function"
    },
    {
      "constant": true,
      "inputs": [
        {
          "internalType": "string",
          "name": "fnName",
          "type": "string"
        }
      ],
      "name": "costOfFunction",
      "outputs": [
        {
          "internalType": "uint256",
          "name": "cost",
          "type": "uint256"
        }
      ],
      "payable": false,
      "stateMutability": "view",
      "type": "function"
    }
  ],
  "bytecode": "0x60806040526000805534801561001457600080fd5b50611b9f806100246000396000f3fe6080604052600436106100555760003560e01c806334f871fe1461005a578063799c7eea1461008357806385eafeab146100ae578063a855b66d146100eb578063ab7eb5e814610107578063ed50724a14610130575b600080fd5b34801561006657600080fd5b50610081600480360361007c919081019061131d565b61016d565b005b34801561008f57600080fd5b506100986101aa565b6040516100a59190611863565b60405180910390f35b3480156100ba57600080fd5b506100d560048036036100d091908101906114f7565b610293565b6040516100e29190611885565b60405180910390f35b61010560048036036101009190810190611389565b61034c565b005b34801561011357600080fd5b5061012e60048036036101299190810190611420565b6107e7565b005b34801561013c57600080fd5b50610157600480360361015291908101906112dc565b610845565b60405161016491906119cc565b60405180910390f35b7fc6d8418123f0248c4bad30c754070bc17607c71ec621ec726ff63a9f2dac9465828260405161019e9291906118c9565b60405180910390a15050565b60606002805480602002602001604051908101604052809291908181526020016000905b8282101561028a578382906000526020600020018054600181600116156101000203166002900480601f0160208091040260200160405190810160405280929190818152602001828054600181600116156101000203166002900480156102765780601f1061024b57610100808354040283529160200191610276565b820191906000526020600020905b81548152906001019060200180831161025957829003601f168201915b5050505050815260200190600101906101ce565b50505050905090565b600281815481106102a057fe5b906000526020600020016000915090508054600181600116156101000203166002900480601f0160208091040260200160405190810160405280929190818152602001828054600181600116156101000203166002900480156103445780601f1061031957610100808354040283529160200191610344565b820191906000526020600020905b81548152906001019060200180831161032757829003601f168201915b505050505081565b6000825111610390576040517f08c379a0000000000000000000000000000000000000000000000000000000008152600401610387906119ac565b60405180910390fd5b61039983610bbb565b6103d8576040517f08c379a00000000000000000000000000000000000000000000000000000000081526004016103cf9061198c565b60405180910390fd5b6103e0611102565b6001846040516103f09190611828565b90815260200160405180910390206040518060c0016040529081600082018054600181600116156101000203166002900480601f0160208091040260200160405190810160405280929190818152602001828054600181600116156101000203166002900480156104a25780601f10610477576101008083540402835291602001916104a2565b820191906000526020600020905b81548152906001019060200180831161048557829003601f168201915b50505050508152602001600182018054600181600116156101000203166002900480601f0160208091040260200160405190810160405280929190818152602001828054600181600116156101000203166002900480156105445780601f1061051957610100808354040283529160200191610544565b820191906000526020600020905b81548152906001019060200180831161052757829003601f168201915b50505050508152602001600282018054600181600116156101000203166002900480601f0160208091040260200160405190810160405280929190818152602001828054600181600116156101000203166002900480156105e65780601f106105bb576101008083540402835291602001916105e6565b820191906000526020600020905b8154815290600101906020018083116105c957829003601f168201915b50505050508152602001600382015481526020016004820160009054906101000a900473ffffffffffffffffffffffffffffffffffffffff1673ffffffffffffffffffffffffffffffffffffffff1673ffffffffffffffffffffffffffffffffffffffff168152602001600582018054600181600116156101000203166002900480601f0160208091040260200160405190810160405280929190818152602001828054600181600116156101000203166002900480156106e85780601f106106bd576101008083540402835291602001916106e8565b820191906000526020600020905b8154815290600101906020018083116106cb57829003601f168201915b505050505081525050905060006106fe82610cb2565b905060003490508181146107326040518060600160405280602c8152602001611b31602c913961072d84610cc0565b610ded565b90610773576040517f08c379a000000000000000000000000000000000000000000000000000000000815260040161076a91906118a7565b60405180910390fd5b50806000808282540192505081905550610791836080015183610e19565b6107d0576040517f08c379a00000000000000000000000000000000000000000000000000000000081526004016107c79061196c565b60405180910390fd5b6107df8360a001518686610e67565b505050505050565b6107ef611102565b6040518060c001604052808781526020018681526020018581526020018381526020013373ffffffffffffffffffffffffffffffffffffffff16815260200184815250905061083d81610ea7565b505050505050565b600061085082610bbb565b61088f576040517f08c379a00000000000000000000000000000000000000000000000000000000081526004016108869061198c565b60405180910390fd5b610897611102565b6001836040516108a79190611828565b90815260200160405180910390206040518060c0016040529081600082018054600181600116156101000203166002900480601f0160208091040260200160405190810160405280929190818152602001828054600181600116156101000203166002900480156109595780601f1061092e57610100808354040283529160200191610959565b820191906000526020600020905b81548152906001019060200180831161093c57829003601f168201915b50505050508152602001600182018054600181600116156101000203166002900480601f0160208091040260200160405190810160405280929190818152602001828054600181600116156101000203166002900480156109fb5780601f106109d0576101008083540402835291602001916109fb565b820191906000526020600020905b8154815290600101906020018083116109de57829003601f168201915b50505050508152602001600282018054600181600116156101000203166002900480601f016020809104026020016040519081016040528092919081815260200182805460018160011615610100020316600290048015610a9d5780601f10610a7257610100808354040283529160200191610a9d565b820191906000526020600020905b815481529060010190602001808311610a8057829003601f168201915b50505050508152602001600382015481526020016004820160009054906101000a900473ffffffffffffffffffffffffffffffffffffffff1673ffffffffffffffffffffffffffffffffffffffff1673ffffffffffffffffffffffffffffffffffffffff168152602001600582018054600181600116156101000203166002900480601f016020809104026020016040519081016040528092919081815260200182805460018160011615610100020316600290048015610b9f5780601f10610b7457610100808354040283529160200191610b9f565b820191906000526020600020905b815481529060010190602001808311610b8257829003601f168201915b5050505050815250509050610bb381610cb2565b915050919050565b6000806000905060008090505b600280549050811015610ca857610c8e60028281548110610be557fe5b906000526020600020018054600181600116156101000203166002900480601f016020809104026020016040519081016040528092919081815260200182805460018160011615610100020316600290048015610c835780601f10610c5857610100808354040283529160200191610c83565b820191906000526020600020905b815481529060010190602001808311610c6657829003601f168201915b5050505050856110a9565b91508115610c9b57610ca8565b8080600101915050610bc8565b5080915050919050565b600081606001519050919050565b60606000821415610d08576040518060400160405280600181526020017f30000000000000000000000000000000000000000000000000000000000000008152509050610de8565b600082905060005b60008214610d32578080600101915050600a8281610d2a57fe5b049150610d10565b6060816040519080825280601f01601f191660200182016040528015610d675781602001600182028038833980820191505090505b50905060006001830390505b60008614610de057600a8681610d8557fe5b0660300160f81b82828060019003935081518110610d9f57fe5b60200101907effffffffffffffffffffffffffffffffffffffffffffffffffffffffffffff1916908160001a905350600a8681610dd857fe5b049550610d73565b819450505050505b919050565b60608282604051602001610e0292919061183f565b604051602081830303815290604052905092915050565b60008160008082825403925050819055508273ffffffffffffffffffffffffffffffffffffffff166108fc839081150290604051600060405180830381858888f19350505050905092915050565b7f5d5517db7a90a78fad09274df18255f8d0b6d06e77aec13c1ef177c767aa7812838383604051610e9a93929190611900565b60405180910390a1505050565b610eb48160000151610bbb565b15610ef4576040517f08c379a0000000000000000000000000000000000000000000000000000000008152600401610eeb9061194c565b60405180910390fd5b8060018260000151604051610f099190611811565b90815260200160405180910390206000820151816000019080519060200190610f3392919061114e565b506020820151816001019080519060200190610f5092919061114e565b506040820151816002019080519060200190610f6d92919061114e565b506060820151816003015560808201518160040160006101000a81548173ffffffffffffffffffffffffffffffffffffffff021916908373ffffffffffffffffffffffffffffffffffffffff16021790555060a0820151816005019080519060200190610fdb92919061114e565b509050506002816000015190806001815401808255809150509060018203906000526020600020016000909192909190915090805190602001906110209291906111ce565b505060036000826080015173ffffffffffffffffffffffffffffffffffffffff1673ffffffffffffffffffffffffffffffffffffffff168152602001908152602001600020816000015190806001815401808255809150509060018203906000526020600020016000909192909190915090805190602001906110a49291906111ce565b505050565b6000816040516020016110bc9190611828565b60405160208183030381529060405280519060200120836040516020016110e39190611828565b6040516020818303038152906040528051906020012014905092915050565b6040518060c0016040528060608152602001606081526020016060815260200160008152602001600073ffffffffffffffffffffffffffffffffffffffff168152602001606081525090565b828054600181600116156101000203166002900490600052602060002090601f016020900481019282601f1061118f57805160ff19168380011785556111bd565b828001600101855582156111bd579182015b828111156111bc5782518255916020019190600101906111a1565b5b5090506111ca919061124e565b5090565b828054600181600116156101000203166002900490600052602060002090601f016020900481019282601f1061120f57805160ff191683800117855561123d565b8280016001018555821561123d579182015b8281111561123c578251825591602001919060010190611221565b5b50905061124a919061124e565b5090565b61127091905b8082111561126c576000816000905550600101611254565b5090565b90565b600082601f83011261128457600080fd5b813561129761129282611a14565b6119e7565b915080825260208301602083018583830111156112b357600080fd5b6112be838284611ac6565b50505092915050565b6000813590506112d681611b19565b92915050565b6000602082840312156112ee57600080fd5b600082013567ffffffffffffffff81111561130857600080fd5b61131484828501611273565b91505092915050565b6000806040838503121561133057600080fd5b600083013567ffffffffffffffff81111561134a57600080fd5b61135685828601611273565b925050602083013567ffffffffffffffff81111561137357600080fd5b61137f85828601611273565b9150509250929050565b60008060006060848603121561139e57600080fd5b600084013567ffffffffffffffff8111156113b857600080fd5b6113c486828701611273565b935050602084013567ffffffffffffffff8111156113e157600080fd5b6113ed86828701611273565b925050604084013567ffffffffffffffff81111561140a57600080fd5b61141686828701611273565b9150509250925092565b600080600080600060a0868803121561143857600080fd5b600086013567ffffffffffffffff81111561145257600080fd5b61145e88828901611273565b955050602086013567ffffffffffffffff81111561147b57600080fd5b61148788828901611273565b945050604086013567ffffffffffffffff8111156114a457600080fd5b6114b088828901611273565b935050606086013567ffffffffffffffff8111156114cd57600080fd5b6114d988828901611273565b92505060806114ea888289016112c7565b9150509295509295909350565b60006020828403121561150957600080fd5b6000611517848285016112c7565b91505092915050565b600061152c8383611613565b905092915050565b600061153f82611a50565b6115498185611a7e565b93508360208202850161155b85611a40565b8060005b8581101561159757848403895281516115788582611520565b945061158383611a71565b925060208a0199505060018101905061155f565b50829750879550505050505092915050565b60006115b482611a66565b6115be8185611aa0565b93506115ce818560208601611ad5565b6115d781611b08565b840191505092915050565b60006115ed82611a66565b6115f78185611ab1565b9350611607818560208601611ad5565b80840191505092915050565b600061161e82611a5b565b6116288185611a8f565b9350611638818560208601611ad5565b61164181611b08565b840191505092915050565b600061165782611a5b565b6116618185611aa0565b9350611671818560208601611ad5565b61167a81611b08565b840191505092915050565b600061169082611a5b565b61169a8185611ab1565b93506116aa818560208601611ad5565b80840191505092915050565b60006116c3602c83611aa0565b91507f46756e6374696f6e20616c726561647920657869747320616e642063616e6e6f60008301527f74206265206372656174656400000000000000000000000000000000000000006020830152604082019050919050565b6000611729601d83611aa0565b91507f556e61626c6520746f2070726f63657373207472616e73616374696f6e0000006000830152602082019050919050565b6000611769601283611aa0565b91507f46756e6374696f6e206e6f7420666f756e6400000000000000000000000000006000830152602082019050919050565b60006117a9602b83611aa0565b91507f496e76616c696420706172616d6572732073657269616c697a6174696f6e202860008301527f6c656e677468203d2030290000000000000000000000000000000000000000006020830152604082019050919050565b61180b81611abc565b82525050565b600061181d8284611685565b915081905092915050565b600061183482846115e2565b915081905092915050565b600061184b82856115e2565b915061185782846115e2565b91508190509392505050565b6000602082019050818103600083015261187d8184611534565b905092915050565b6000602082019050818103600083015261189f818461164c565b905092915050565b600060208201905081810360008301526118c181846115a9565b905092915050565b600060408201905081810360008301526118e381856115a9565b905081810360208301526118f781846115a9565b90509392505050565b6000606082019050818103600083015261191a81866115a9565b9050818103602083015261192e81856115a9565b9050818103604083015261194281846115a9565b9050949350505050565b60006020820190508181036000830152611965816116b6565b9050919050565b600060208201905081810360008301526119858161171c565b9050919050565b600060208201905081810360008301526119a58161175c565b9050919050565b600060208201905081810360008301526119c58161179c565b9050919050565b60006020820190506119e16000830184611802565b92915050565b6000604051905081810181811067ffffffffffffffff82111715611a0a57600080fd5b8060405250919050565b600067ffffffffffffffff821115611a2b57600080fd5b601f19601f8301169050602081019050919050565b6000819050602082019050919050565b600081519050919050565b600081519050919050565b600081519050919050565b6000602082019050919050565b600082825260208201905092915050565b600082825260208201905092915050565b600082825260208201905092915050565b600081905092915050565b6000819050919050565b82818337600083830152505050565b60005b83811015611af3578082015181840152602081019050611ad8565b83811115611b02576000848401525b50505050565b6000601f19601f8301169050919050565b611b2281611abc565b8114611b2d57600080fd5b5056fe496e636f7272656374207472616e73616374696f6e20616d6f756e742073656e742062792063616c6c657220a365627a7a72315820ab81dbe13a4e8350d232a3b369873c4985e7b1f8008debd4b730073d7b06f3376c6578706572696d656e74616cf564736f6c634300050c0040",
  "source": "pragma solidity >=0.5.0 <0.7.0;\npragma experimental ABIEncoderV2;\n\ncontract EtherlessSmart {\n    constructor() public {}\n    /* DATA */\n    struct Function {\n        string name;\n        string description;\n        string prototype;\n        uint256 cost; // in wei\n        address payable owner;\n        string remoteResource;\n    }\n\n    uint256 constant ServiceFee = 1; // can be declared later as percentage\n    uint256 balance = 0;\n\n    mapping(string => Function) private deployedFunctions; // <nome funzione> -> <Function>\n    string[] public availableFunctionNames;\n\n    mapping(address => string[]) private userFunctionNames;\n\n    /* EVENTS */\n    event RemoteExec(string _name, string _parameters, string _identifier);\n    event RemoteResponse(string _response, string _identifier);\n\n    // require, assert, revert\n\n    /* PUBLIC INTERFACES */\n    function execFunctionRequest(string memory fnName, string memory paramers, string memory identifier)\n        public\n        payable\n    {\n        require(\n            bytes(paramers).length > 0,\n            \"Invalid paramers serialization (length = 0)\"\n        ); // length conversion valid only for some encodings\n        // check if function with given name exists\n        if (!existsFunction(fnName)) {\n            revert(\"Function not found\");\n        }\n        // get function data\n        Function memory fnRequested = deployedFunctions[fnName];\n\n        // check if correct ether amount sent by caller\n        uint256 fnCostToRun = costOfFunction(fnRequested);\n        uint256 amountSentByCaller = msg.value; // rappresenta il quantitativo di soldi inviati dall'utente a questa funzione\n        require(\n            amountSentByCaller == fnCostToRun,\n            concat(\n                \"Incorrect transaction amount sent by caller \",\n                uint2str(amountSentByCaller)\n            )\n        );\n        balance += amountSentByCaller;\n        if (!moveCurrencies(fnRequested.owner, fnCostToRun)) {\n            revert(\"Unable to process transaction\");\n        }\n\n        // pretend to be calling function from aws\n        execRemoteRequest(fnRequested.remoteResource, paramers, identifier);\n        // add timer or something that will trigger \"Unable to call remote execution\"\n        /*bool remoteTriggerSuccess = true;\n        if (!remoteTriggerSuccess) {\n            revert(\"Unable to call remote resource execution\");   \n        }*/\n    }\n\n    function listFunctions()\n        public\n        view\n        returns (string[] memory functionNames)\n    {\n        return availableFunctionNames;\n    }\n\n    function createFunction(\n        string memory fnName,\n        string memory description,\n        string memory prototype,\n        string memory remoteResource,\n        uint256 cost\n    ) public {\n        // TODO: add paramers checks\n        // require(cost <= 0, \"Invalid cost, cost must be greater than 0\");\n\n        Function memory newFn = Function({\n            name: fnName,\n            description: description,\n            prototype: prototype,\n            cost: cost,\n            owner: msg.sender,\n            remoteResource: remoteResource\n        });\n        storeFunction(newFn);\n    }\n\n    function costOfFunction(string memory fnName)\n        public\n        view\n        returns (uint256 cost)\n    {\n        if (!existsFunction(fnName)) {\n            revert(\"Function not found\");\n        }\n        Function memory fnRequested = deployedFunctions[fnName];\n        return costOfFunction(fnRequested);\n    }\n\n    // send event that will trigger remote execution\n    function execRemoteRequest(string memory remoteName, string memory paramers, string memory identifier)\n        private\n    {\n        emit RemoteExec(remoteName, paramers, identifier);\n    }\n\n    // remove execution will return result via this call\n    // result will be emitted to eth-cli\n    function execRemoteResponse(string memory result, string memory identifier) public {\n        emit RemoteResponse(result, identifier);\n    }\n\n    /* PRIVATE FUNCTIONS */\n    function costOfFunction(Function memory fn)\n        private\n        view\n        returns (uint256 cost)\n    {\n        return fn.cost;\n    }\n\n    // check if functino with given name exists\n    function existsFunction(string memory named) private view returns (bool) {\n        bool found = false;\n        for (uint256 i = 0; i < availableFunctionNames.length; i++) {\n            found = (compareStrings(availableFunctionNames[i], named));\n            if (found) break;\n        }\n        return found;\n    }\n\n    function storeFunction(Function memory fn) private {\n        // check if function already exists before adding it to the availableFunctionNames\n        if (existsFunction(fn.name)) {\n            revert(\"Function already exits and cannot be created\");\n        }\n        // check if another funcion is already linked to remote resource\n        deployedFunctions[fn.name] = fn;\n        availableFunctionNames.push(fn.name);\n        userFunctionNames[fn.owner].push(fn.name);\n    }\n\n    // calculates how much profit for the function creator based on how much Ethreless keeps for itself\n    function profitPerFunctionRun(uint256 fnCost)\n        private\n        view\n        returns (uint256 profit)\n    {\n        return fnCost - ServiceFee;\n    }\n\n    // Eth exchange\n    function moveCurrencies(address payable receiver, uint256 amount)\n        private\n        returns (bool success)\n    {\n        balance -= amount;\n        return receiver.send(amount);\n    }\n\n    /* UTILITIES */\n    function compareStrings(string memory a, string memory b)\n        private\n        view\n        returns (bool)\n    {\n        return (keccak256(abi.encodePacked((a))) ==\n            keccak256(abi.encodePacked((b))));\n    }\n\n    function concat(string memory a, string memory b)\n        internal\n        pure\n        returns (string memory)\n    {\n        return string(abi.encodePacked(a, b));\n    }\n    function uint2str(uint256 _i)\n        internal\n        pure\n        returns (string memory _uintAsString)\n    {\n        if (_i == 0) {\n            return \"0\";\n        }\n        uint256 j = _i;\n        uint256 len;\n        while (j != 0) {\n            len++;\n            j /= 10;\n        }\n        bytes memory bstr = new bytes(len);\n        uint256 k = len - 1;\n        while (_i != 0) {\n            bstr[k--] = bytes1(uint8(48 + (_i % 10)));\n            _i /= 10;\n        }\n        return string(bstr);\n    }\n}\n",
  "sourcePath": "/Users/gabrielciulei/UNIPD/etherless-smart/contracts/EtherlessSmart.sol",
  "compiler": {
    "name": "solc",
    "version": "0.5.12+commit.7709ece9.Emscripten.clang"
  },
  "schemaVersion": "3.0.19",
  "updatedAt": "2020-03-03T11:23:21.329Z",
  "networkType": "ethereum",
  "devdoc": {
    "methods": {}
  },
  "userdoc": {
    "methods": {}
  }
}